:100000000C944A030C945C030C945C030C945C0306
:100010000C945C030C945C030C945C030C945C03E4
:100020000C945C030C945C030C945C030C945C03D4
:100030000C945C030C945C030C945C030C945C03C4
:100040000C945C030C945C030C945C030C945C03B4
:100050000C945C030C945C030C945C030C945C03A4
:100060000C945C030C945C030C945C030C945C0394
:100070000C945C030C945C030C945C030C945C0384
:100080000C945C030C945C030C945C034545505247
:100090004F4D2077726974652064617461206661D8
:1000A000696C65642E2E00454550524F4D20777285
:1000B0006974652D32206661696C65642E2E004579
:1000C0004550524F4D2077726974652D312066611D
:1000D000696C65642E2E00454550524F4D20736566
:1000E0006E644164647265737331206661696C6526
:1000F000642E2E006932632073746172742066610D
:10010000696C65642E2E00576169742E2E2E004591
:100110004550524F4D207772697465206461746157
:10012000206661696C65642E2E00454550524F4D26
:100130002077726974652D32206661696C65642E62
:100140002E00454550524F4D2077726974652D3110
:10015000206661696C65642E2E00454550524F4DF6
:100160002073656E644164647265737331206661E7
:10017000696C65642E2E0069326320737461727439
:10018000206661696C65642E2E00454550524F4DC6
:100190002072656365697665206661696C65642EA9
:1001A0002E00454550524F4D2073656E6441646486
:1001B0007265737332206661696C65642E2E006906
:1001C0003263207265706561742D7374617274207E
:1001D0006661696C65642E2E00454550524F4D2076
:1001E00077726974652D32206661696C65642E2EA4
:1001F00000454550524F4D2077726974652D31206E
:100200006661696C65642E2E00454550524F4D2045
:1002100073656E64416464726573733120666169ED
:100220006C65642E2E0069326320737461727420D1
:100230006661696C65642E2E002046696E6973687C
:1002400065642E2E0020454550524F4D206F70653D
:10025000726174696F6E206661696C65642E2E0030
:1002600020496E76616C6964206F7074696F6E21CD
:100270000020456E74657220746578743A20002001
:1002800041646472657373206F7574206F662072A9
:10029000616E67652E2E200020456E7465722050B9
:1002A000616765204E756D62657220283030302D93
:1002B000353131293A200020486F77206D616E7901
:1002C0002062797465733F2830302D3634293A2006
:1002D0000020456E74657220746578743A200020A1
:1002E000454550524F4D20657261736564207375AA
:1002F000636365737366756C6C792E2E00204545BB
:1003000050524F4D206572617365206661696C655E
:10031000642E2E003E2053656C656374204F70740C
:10032000696F6E2028302D38293A20003E20382071
:100330003A20557064617465205254432054696DAD
:1003400065003E2037203A20557064617465205264
:1003500054432044617465003E2036203A204469AD
:1003600073706C6179205254432054696D65003E6E
:100370002035203A20446973706C617920525443CF
:100380002044617465003E2034203A205265616447
:1003900020454550524F4D2050616765003E203347
:1003A000203A20577269746520454550524F4D20C0
:1003B00050616765003E2032203A2052656164201A
:1003C000454550524F4D003E2031203A205772692A
:1003D000746520454550524F4D003E2030203A2054
:1003E000457261736520454550524F4D005072650E
:1003F000737320616E79206B65792E2E00496E76BD
:10040000616C696420456E7472792E2E00446174AB
:1004100065205570646174656420737563657373DA
:1004200066756C6C792E2E00456E74657220446181
:1004300079202853756E6461793A302C204D6F6EA7
:100440006461793A312E2E2E292028302D36293A12
:1004500000456E7465722044617465202864642FC1
:100460006D6D2F7979293A00496E76616C69642047
:10047000456E7472792E2E0054696D652055706436
:10048000617465642073756365737366756C6C79EC
:100490002E2E00456E7465722054696D6520696E5C
:1004A0002032346820666F726D61742868683A6D16
:1004B0006D3A7373293A0052544320777269746518
:1004C0002064617465206661696C65642E2E00523B
:1004D00054432077726974652D31206661696C65BB
:1004E000642E2E005254432073656E64416464721E
:1004F00065737331206661696C65642E2E005254F9
:100500004320737461727431206661696C65642E76
:100510002E005254432077726974652074696D65AA
:10052000206661696C65642E2E00525443207772F8
:100530006974652D31206661696C65642E2E0052E8
:1005400054432073656E6441646472657373312033
:100550006661696C65642E2E005254432073746189
:10056000727431206661696C65642E2E00556E6B65
:100570006E6F776E005361747572646179004672B4
:1005800069646179005468757273646179005765B4
:10059000646E657364617900547565736461790094
:1005A0004D6F6E6461790053756E6461790020202F
:1005B00020204461793A2000446174653A0054690E
:1005C0006D653A0052544320726563656976652013
:1005D0006661696C65642E2E005254432073656E0B
:1005E000644164647265737332206661696C65642A
:1005F0002E2E00525443207265706561742073740E
:10060000617274206661696C65642E2E00525443D9
:100610002077726974652D31206661696C65642E7E
:100620002E005254432073656E6441646472657396
:100630007331206661696C65642E2E00525443202C
:10064000737461727431206661696C65642E2E006A
:100650005254432077726974652D32206661696C4B
:1006600065642E2E005254432073656E64416464A9
:100670007265737331206661696C65642E2E005259
:10068000544320737461727431206661696C6564CF
:100690002E2E000011241FBECFEFD0E1DEBFCDBF54
:1006A00011E0A0E0B1E001C01D92AE31B107E1F769
:1006B0000E94F5040C941F0B0C940000CF92DF9263
:1006C000FF920F931F93CF93DF93182F062FF42ED3
:1006D0000E94B006813041F486E292E00E94FC0A5A
:1006E0000E94210781E076C080EA0E94D006813016
:1006F00041F489E092E00E94FC0A0E94210781E017
:1007000069C0812F0E94EB06813041F481EF91E0B6
:100710000E94FC0A0E94210781E05CC0802F0E9499
:10072000EB06813041F489ED91E00E94FC0A0E94C1
:10073000210781E04FC00E94C006813041F48FEB59
:1007400091E00E94FC0A0E94210781E043C081EAF7
:100750000E94D006813019F0FF2049F432C082EAAD
:1007600091E00E94FC0A0E94210781E033C0C0E0B2
:10077000D0E0CF2CDD240894C108D1080C2FCC1573
:10078000DD0521F40E940F07182F03C00E94FD060B
:10079000182F1E3741F48AE891E00E94FC0A0E945B
:1007A000210781E017C00F7031F48DE00E94F80A34
:1007B0008AE00E94F80A812F0E94F80A2196CF153C
:1007C000E8F28DE00E94F80A8AE00E94F80A0E948E
:1007D000210780E0DF91CF911F910F91FF90DF9073
:1007E000CF9008950F931F93182F062F0E94B006E5
:1007F000813041F487E791E00E94FC0A0E942107C2
:1008000081E03FC080EA0E94D006813041F48AE551
:1008100091E00E94FC0A0E94210781E032C0812FF2
:100820000E94EB06813041F482E491E00E94FC0AD0
:100830000E94210781E025C0802F0E94EB068130B5
:10084000C1F48AE291E00E94FC0A0E94210781E043
:1008500018C0812F0E94F80A812F0E94EB06813078
:1008600041F48FE091E00E94FC0A0E94210781E0A0
:1008700008C00E94F30A182F8D3059F70E942107F3
:1008800080E01F910F910895BC0100247695679533
:100890000794769567950794762F602D872F40E40F
:1008A0000E945E030895BC01002476956795079425
:1008B000769567950794762F602D872F0E94F20317
:1008C0000895CF93DF938DE00E94F80A8AE00E949A
:1008D000F80A8DE00E94F80A8AE00E94F80A87E090
:1008E00091E00E94FC0A8DE00E94F80A8AE00E94D2
:1008F000F80A0E94B006813041F484EF90E00E9433
:10090000FC0A0E94210781E03BC080EA0E94D006D9
:10091000813041F487ED90E00E94FC0A0E9421079B
:1009200081E02EC080E00E94EB06813041F48FEB25
:1009300090E00E94FC0A0E94210781E021C080E033
:100940000E94EB06813041F487EA90E00E94FC0AA5
:100950000E94210781E014C0C0E0D0E08FEF0E9428
:10096000EB06813041F48CE890E00E94FC0A0E9482
:10097000210781E005C021968AF70E94210780E0C7
:10098000DF91CF9108951BBA1ABA18BA17BA15BADF
:100990008FEF84BB12BA11BA13B812B8109262006A
:1009A0001092610010926500109264000895E4E7CF
:1009B000F0E0108282E1809370001092710084E474
:1009C00080830895F8941CBE10926D000E94C304A9
:1009D0000E94E70A0E94D70415BE10926A001ABE50
:1009E00019BE17BE10927D0008952F923F924F922C
:1009F0005F926F927F928F929F92AF92BF92CF92AF
:100A0000DF92EF92FF920F931F93CF93DF930E9499
:100A1000E2040F2EFDEEEF2EF3E0FF2EF02D0F2E51
:100A2000FAEDCF2EF3E0DF2EF02D0F2EF7ECAF2EE8
:100A3000F3E0BF2EF02D0F2EF5EB8F2EF3E09F2E5F
:100A4000F02D0F2EFDE96F2EF3E07F2EF02D0F2EEF
:100A5000F6E84F2EF3E05F2EF02D0F2EFFE62F2E3F
:100A6000F3E03F2EF02D8DE00E94F80A8AE00E940C
:100A7000F80A8DE00E94F80A8AE00E94F80AC7018D
:100A80000E94FC0A0E94F30A8DE00E94F80A8AE0A4
:100A90000E94F80AC6010E94FC0A8DE00E94F80A32
:100AA0008AE00E94F80AC5010E94FC0A8DE00E94BB
:100AB000F80A8AE00E94F80AC4010E94FC0A8DE04C
:100AC0000E94F80A8AE00E94F80AC3010E94FC0A08
:100AD0008DE00E94F80A8AE00E94F80AC2010E9492
:100AE000FC0A8DE00E94F80A8AE00E94F80AC1011F
:100AF0000E94FC0A8DE00E94F80A8AE00E94F80A2F
:100B000088E593E00E94FC0A8DE00E94F80A8AE0E2
:100B10000E94F80A82E493E00E94FC0A8DE00E94A1
:100B2000F80A8AE00E94F80A8CE293E00E94FC0A2C
:100B30008DE00E94F80A8AE00E94F80A8DE00E9487
:100B4000F80A8AE00E94F80A84E193E00E94FC0A15
:100B50000E94F30A082F0E94F80A053358F4033361
:100B600008F061C0013341F10233A8F5003309F008
:100B7000C9C00DC0063309F4BCC0063308F4B6C0C2
:100B8000073309F4B9C0083309F0BCC0B8C00E94EB
:100B90006104182F8DE00E94F80A8AE00E94F80A8A
:100BA000113029F48DEF92E00E94FC0ABEC08FED57
:100BB00092E00E94FC0AC3C08DE00E94F80A8AE01D
:100BC0000E94F80A81ED92E00E94FC0A80E060E059
:100BD0000E94F203A8C08DE00E94F80A8AE00E94F9
:100BE000F80A87EB92E00E94FC0A0E94F30A182F91
:100BF0000E94F80A1F70110F012F000F000F010F44
:100C00000E94F30A182F0E94F80A8DE00E94F80A49
:100C10008AE00E94F80A1F70402F410F80E060E0D8
:100C20000E945E0380C08DE00E94F80A8AE00E9464
:100C3000F80A88E992E00E94FC0A0E94F30A182F41
:100C40000E94F80A812F90E08F70907024E630E0C7
:100C5000829FE001839FD00D929FD00D11240E94AE
:100C6000F30A182F0E94F80A812F90E08F7090707D
:100C70009C01220F331F880F991F880F991F880F1F
:100C8000991F820F931FC80FD91F0E94F30A182FB4
:100C90000E94F80A1F70C10FD11D32E0C030D30787
:100CA00058F08DE00E94F80A8AE00E94F80A8FE767
:100CB00092E00E94FC0A43C08DE00E94F80A8AE09C
:100CC0000E94F80A033371F48DE00E94F80A8AE06A
:100CD0000E94F80A81E792E00E94FC0ACE010E947D
:100CE000530421C0CE010E9444041DC00E94850807
:100CF00026C00E94360823C00E94110A20C00E940C
:100D000086091DC08DE00E94F80A8AE00E94F80A58
:100D100080E692E00E94FC0A8DE00E94F80A8AE0D8
:100D20000E94F80A0CC0813051F485E492E00E94E0
:100D3000FC0A8DE00E94F80A8AE00E94F80A8DE021
:100D40000E94F80A8AE00E94F80A89E392E00E9471
:100D5000FC0A8DE00E94F80A8AE00E94F80A83CE1D
:100D600084EA80937400E4E7F0E080818823ECF764
:100D700090917100987F81E0983009F480E00895A7
:100D800084EA80937400E4E7F0E080818823ECF744
:100D900090917100987F81E0903109F480E008958E
:100DA00080FD02C028E101C020E48093730084E844
:100DB00080937400E4E7F0E080818823ECF74091B1
:100DC000710050E0487F507030E081E042175307D7
:100DD00009F480E008958093730084E880937400A0
:100DE000E4E7F0E080818823ECF790917100987F30
:100DF00081E0983209F480E0089584EC80937400D7
:100E0000E4E7F0E080818823ECF780917100887F2F
:100E1000803519F48091730008958EE7089584E871
:100E200080937400E4E7F0E080818823ECF7809100
:100E30007100887F883519F48091730008958EE7DA
:100E4000089584E98093740008950E94B00681306B
:100E500039F48FE796E00E94FC0A0E94210708956A
:100E600080ED0E94D006813039F485E696E00E943C
:100E7000FC0A0E942107089580E00E94EB06813061
:100E800039F480E596E00E94FC0A0E94210708954B
:100E90000E94210708951F93CF93DF930E94B0060D
:100EA000813039F48CE396E00E94FC0A0E9421070D
:100EB00048C080ED0E94D006813039F482E296E08D
:100EC0000E94FC0A0E9421073CC080E00E94EB06C1
:100ED000813039F48DE096E00E94FC0A0E942107DF
:100EE00030C00E94C006813039F483EF95E00E9443
:100EF000FC0A0E94210725C081ED0E94D0068130A6
:100F000039F489ED95E00E94FC0A0E94210719C07E
:100F1000C0E0D1E010E0163019F40E940F0702C0C3
:100F20000E94FD068E3739F484EC95E00E94FC0A9D
:100F30000E94210706C089931F5F173061F70E9446
:100F40002107DF91CF911F9108950E944B071092C6
:100F50000F0180910001982F9F70906390930E0174
:100F600090E0807790709595879595958795959564
:100F7000879595958795806380930D012AE320934B
:100F80000C0180910101982F9F70906390930B0149
:100F900090E0807790709595879595958795959534
:100FA000879595958795806380930A012093090121
:100FB00080910201982F9F7090639093080190E0B8
:100FC000807390709595879595958795959587955C
:100FD0009595879580638093070108950E944B073C
:100FE00010921D0110921C0180910601982F9F7094
:100FF000906390931B0182958F70806380931A0198
:1010000080E38093190182E3809318012FE22093FB
:10101000170180910501982F9F709063909316019E
:1010200090E08071907095958795959587959595A9
:10103000879595958795806380931501209314017A
:1010400080910401982F9F7090639093130190E01A
:1010500080739070959587959595879595958795CB
:101060009595879580638093120108950E94A50746
:101070008DE00E94F80A8AE00E94F80A8EEB95E063
:101080000E94FC0A87E091E00E94100B08958EEA0E
:1010900095E00E94FC0A809103018330E9F08430DE
:1010A00028F4813079F0823090F407C08530F1F077
:1010B0008530B8F0863021F51EC087EA95E00E94A1
:1010C000FC0A089580EA95E00E94FC0A089588E9E8
:1010D00095E00E94FC0A08958EE895E00E94FC0AC3
:1010E000089585E895E00E94FC0A08958EE795E052
:1010F0000E94FC0A089585E795E00E94FC0A089585
:101100008DE695E00E94FC0A08950E94EE078DE0AE
:101110000E94F80A8AE00E94F80A88EB95E00E9493
:10112000FC0A82E191E00E94100B0E94470808959A
:1011300080910D0190E08770907082959295907FDC
:101140009827807F982720910E012F70822B809303
:10115000000180910A0190E08770907082959295CD
:10116000907F9827807F982720910B012F70822BEA
:1011700080930101E7E0F1E0808190E0837090705E
:1011800082959295907F9827807F982721812F7054
:10119000822B8093020180911C0180930301E2E184
:1011A000F1E0808190E08370907082959295907FBD
:1011B0009827807F982721812F70822B80930401AC
:1011C000838190E08170907082959295907F9827AE
:1011D000807F982724812F70822B80930501908532
:1011E0009295907F81858F70892B80930601089559
:1011F0000F931F93CF93DF930E94B006813041F489
:1012000089E595E00E94FC0A0E94210781E032C036
:1012100080ED0E94D006813041F48FE395E00E947A
:10122000FC0A0E94210781E025C080E00E94EB06B5
:10123000813041F48AE295E00E94FC0A0E94210775
:1012400081E018C0C0E0D1E08E010D5F1F4F899191
:101250000E94EB06813041F482E195E00E94FC0A95
:101260000E94210781E006C0C017D10781F70E94C4
:10127000210780E0DF91CF911F910F9108950F9387
:101280001F93CF93DF930E94B006813041F48EEF1D
:1012900094E00E94FC0A0E94210781E032C080EDA8
:1012A0000E94D006813041F484EE94E00E94FC0A52
:1012B0000E94210781E025C083E00E94EB06813077
:1012C00041F48FEC94E00E94FC0A0E94210781E027
:1012D00018C0C3E0D1E08E010C5F1F4F89910E94BE
:1012E000EB06813041F487EB94E00E94FC0A0E94F7
:1012F000210781E006C0C017D10781F70E942107AE
:1013000080E0DF91CF911F910F9108951F938DE0A1
:101310000E94F80A8AE00E94F80A83E994E00E9499
:10132000FC0A0E94F30A182F0E94F80A812F8053AA
:10133000833008F06AC0109307010E94F30A182F47
:101340000E94F80A812F80538A3008F05EC0109303
:1013500008018AE30E94F80A8091070190E08370F7
:1013600090709C01220F331F880F991F880F991FBF
:10137000880F991F820F931F209108012F70820FF1
:10138000911D883191050CF040C00E94F30A182F7E
:101390000E94F80A812F80538630B8F510930A0115
:1013A0000E94F30A182F0E94F80A812F80538A3076
:1013B00060F510930B018AE30E94F80A0E94F30A79
:1013C000182F0E94F80A812F80538630F0F4109372
:1013D0000D010E94F30A182F0E94F80A812F8053F2
:1013E0008A3098F410930E010E9498080E94F80821
:1013F0008823A9F48DE00E94F80A8AE00E94F80A86
:1014000088E794E00E94FC0A0AC08DE00E94F80A76
:101410008AE00E94F80A88E694E00E94FC0A1F9184
:1014200008951F938DE00E94F80A8AE00E94F80A4E
:1014300081E594E00E94FC0A0E94F30A182F0E94A2
:10144000F80A812F8053843008F0B5C01093120140
:101450000E94F30A182F0E94F80A812F80538A30C5
:1014600008F0A9C0109313018091100190E08370DF
:1014700090709C01220F331F880F991F880F991FAE
:10148000880F991F820F931F20910F012F70820FD9
:10149000911D803291050CF08EC00E94F30A182F26
:1014A0000E94F80A1F3229F01D3219F0103209F09B
:1014B00082C0109314010E94F30A182F0E94F80AA8
:1014C000812F8053823008F076C0109315010E945E
:1014D000F30A182F0E94F80A812F80538A3008F0EF
:1014E0006AC0109316011F708091150190E08370FF
:1014F00090709C01220F331F880F991F880F991F2E
:10150000880F991F820F931F810F911D8D309105B8
:101510000CF051C00E94F30A182F0E94F80A1F32E3
:1015200029F01D3219F0103209F045C0109317014F
:1015300082E38093180180E3809319010E94F30AEB
:10154000182F0E94F80A812F80538A30A0F510933B
:101550001A010E94F30A182F0E94F80A812F805363
:101560008A3048F510931B018DE00E94F80A8AE04A
:101570000E94F80A88E294E00E94FC0A0E94F30AA2
:10158000182F0E94F80A812F80538730A0F41F7013
:1015900010931C010E9498080E943F098823A9F417
:1015A0008DE00E94F80A8AE00E94F80A8DE094E03B
:1015B0000E94FC0A0AC08DE00E94F80A8AE00E949C
:1015C000F80A8DEF93E00E94FC0A1F9108951AB863
:1015D0001BB886E08093950083E389B91092900050
:1015E00088E98AB908955F9BFECF8BB18CB10895CD
:1015F0005D9BFECF8CB90895CF93DF93EC01FE0184
:101600002491222351F02196FC0184910E94F80A32
:10161000CE01FE0124912223B1F7DF91CF910895ED
:10162000CF93DF93EC018881882331F021960E94CB
:10163000F80A89918823D9F7DF91CF910895F8941A
:02164000FFCFDA
:00000001FF
